{
  "contractName": "PluginRegistrar",
  "abi": [
    {
      "constant": true,
      "inputs": [
        {
          "name": "",
          "type": "address"
        }
      ],
      "name": "pluginsByDevAddress",
      "outputs": [
        {
          "name": "contractAddress",
          "type": "address"
        },
        {
          "name": "scriptUrl",
          "type": "string"
        }
      ],
      "payable": false,
      "stateMutability": "view",
      "type": "function"
    },
    {
      "inputs": [],
      "payable": false,
      "stateMutability": "nonpayable",
      "type": "constructor"
    },
    {
      "constant": true,
      "inputs": [
        {
          "name": "authorAddress",
          "type": "address"
        }
      ],
      "name": "pluginAddress",
      "outputs": [
        {
          "name": "",
          "type": "address"
        }
      ],
      "payable": false,
      "stateMutability": "view",
      "type": "function"
    },
    {
      "constant": false,
      "inputs": [
        {
          "name": "contractAddress",
          "type": "address"
        },
        {
          "name": "scriptUrl",
          "type": "string"
        }
      ],
      "name": "register",
      "outputs": [],
      "payable": false,
      "stateMutability": "nonpayable",
      "type": "function"
    }
  ],
  "bytecode": "0x608060405234801561001057600080fd5b506040805190810160405280736ccb1def4ff8c4b953b084a220ec51817b65fd8773ffffffffffffffffffffffffffffffffffffffff1681526020016040805190810160405280601581526020017f687474703a2f2f6c6f63616c686f73743a383838380000000000000000000000815250815250600080736ccb1def4ff8c4b953b084a220ec51817b65fd8773ffffffffffffffffffffffffffffffffffffffff1673ffffffffffffffffffffffffffffffffffffffff16815260200190815260200160002060008201518160000160006101000a81548173ffffffffffffffffffffffffffffffffffffffff021916908373ffffffffffffffffffffffffffffffffffffffff160217905550602082015181600101908051906020019061013a929190610143565b509050506101e8565b828054600181600116156101000203166002900490600052602060002090601f016020900481019282601f1061018457805160ff19168380011785556101b2565b828001600101855582156101b2579182015b828111156101b1578251825591602001919060010190610196565b5b5090506101bf91906101c3565b5090565b6101e591905b808211156101e15760008160009055506001016101c9565b5090565b90565b610543806101f76000396000f300608060405260043610610057576000357c0100000000000000000000000000000000000000000000000000000000900463ffffffff1680630c44852e1461005c57806332434a2e1461014b578063981bdaf1146101d4575b600080fd5b34801561006857600080fd5b5061009d600480360381019080803573ffffffffffffffffffffffffffffffffffffffff169060200190929190505050610257565b604051808373ffffffffffffffffffffffffffffffffffffffff1673ffffffffffffffffffffffffffffffffffffffff16815260200180602001828103825283818151815260200191508051906020019080838360005b8381101561010f5780820151818401526020810190506100f4565b50505050905090810190601f16801561013c5780820380516001836020036101000a031916815260200191505b50935050505060405180910390f35b34801561015757600080fd5b506101d2600480360381019080803573ffffffffffffffffffffffffffffffffffffffff169060200190929190803590602001908201803590602001908080601f0160208091040260200160405190810160405280939291908181526020018383808284378201915050505050509192919290505050610333565b005b3480156101e057600080fd5b50610215600480360381019080803573ffffffffffffffffffffffffffffffffffffffff169060200190929190505050610407565b604051808273ffffffffffffffffffffffffffffffffffffffff1673ffffffffffffffffffffffffffffffffffffffff16815260200191505060405180910390f35b60006020528060005260406000206000915090508060000160009054906101000a900473ffffffffffffffffffffffffffffffffffffffff1690806001018054600181600116156101000203166002900480601f0160208091040260200160405190810160405280929190818152602001828054600181600116156101000203166002900480156103295780601f106102fe57610100808354040283529160200191610329565b820191906000526020600020905b81548152906001019060200180831161030c57829003601f168201915b5050505050905082565b60408051908101604052808373ffffffffffffffffffffffffffffffffffffffff168152602001828152506000803373ffffffffffffffffffffffffffffffffffffffff1673ffffffffffffffffffffffffffffffffffffffff16815260200190815260200160002060008201518160000160006101000a81548173ffffffffffffffffffffffffffffffffffffffff021916908373ffffffffffffffffffffffffffffffffffffffff16021790555060208201518160010190805190602001906103ff929190610472565b509050505050565b60008060008373ffffffffffffffffffffffffffffffffffffffff1673ffffffffffffffffffffffffffffffffffffffff16815260200190815260200160002060000160009054906101000a900473ffffffffffffffffffffffffffffffffffffffff169050919050565b828054600181600116156101000203166002900490600052602060002090601f016020900481019282601f106104b357805160ff19168380011785556104e1565b828001600101855582156104e1579182015b828111156104e05782518255916020019190600101906104c5565b5b5090506104ee91906104f2565b5090565b61051491905b808211156105105760008160009055506001016104f8565b5090565b905600a165627a7a7230582076c1ebeba44a65779ecac9c0717e2f9da9ce7514c75c8ea310ea7fed04761d0c0029",
  "source": "pragma solidity >=0.4.21;\n\ncontract PluginRegistrar {\n\n  struct Plugin {\n    address contractAddress;\n    string scriptUrl;\n  }\n  mapping (address => Plugin) public pluginsByDevAddress;\n\n\n  function pluginAddress(address authorAddress) public constant returns(address){\n    return pluginsByDevAddress[authorAddress].contractAddress;\n  }\n  \n  constructor() public {\n    pluginsByDevAddress[0x6cCB1DEf4Ff8C4b953B084a220ec51817B65fD87] = Plugin(0x6cCB1DEf4Ff8C4b953B084a220ec51817B65fD87, \"http://localhost:8888\");\n  }\n\n  function register(address contractAddress, string scriptUrl) public {\n    pluginsByDevAddress[msg.sender] = Plugin(contractAddress, scriptUrl);\n  }\n\n}\n",
  "sourcePath": "/home/whysos3rious/eth-plugin-registrar/eth/contracts/PluginRegistrar.sol",
  "compiler": {
    "name": "solc",
    "version": "0.4.25+commit.59dbf8f1.Emscripten.clang"
  },
  "schemaVersion": "2.0.2",
  "updatedAt": "2019-01-14T09:31:55.037Z"
}