{
  "contractName": "PluginRegistrar",
  "abi": [
    {
      "constant": true,
      "inputs": [
        {
          "name": "",
          "type": "address"
        }
      ],
      "name": "pluginsByDevAddress",
      "outputs": [
        {
          "name": "contractAddress",
          "type": "address"
        },
        {
          "name": "scriptUrl",
          "type": "string"
        }
      ],
      "payable": false,
      "stateMutability": "view",
      "type": "function"
    },
    {
      "inputs": [],
      "payable": false,
      "stateMutability": "nonpayable",
      "type": "constructor"
    },
    {
      "constant": true,
      "inputs": [
        {
          "name": "devAddress",
          "type": "address"
        }
      ],
      "name": "pluginAddress",
      "outputs": [
        {
          "name": "",
          "type": "address"
        }
      ],
      "payable": false,
      "stateMutability": "view",
      "type": "function"
    },
    {
      "constant": false,
      "inputs": [
        {
          "name": "contractAddress",
          "type": "address"
        },
        {
          "name": "scriptUrl",
          "type": "string"
        }
      ],
      "name": "register",
      "outputs": [],
      "payable": false,
      "stateMutability": "nonpayable",
      "type": "function"
    }
  ],
  "bytecode": "0x608060405234801561001057600080fd5b506104df806100206000396000f300608060405260043610610057576000357c0100000000000000000000000000000000000000000000000000000000900463ffffffff1680630c44852e1461005c57806332434a2e1461014b578063981bdaf1146101d4575b600080fd5b34801561006857600080fd5b5061009d600480360381019080803573ffffffffffffffffffffffffffffffffffffffff169060200190929190505050610257565b604051808373ffffffffffffffffffffffffffffffffffffffff1673ffffffffffffffffffffffffffffffffffffffff16815260200180602001828103825283818151815260200191508051906020019080838360005b8381101561010f5780820151818401526020810190506100f4565b50505050905090810190601f16801561013c5780820380516001836020036101000a031916815260200191505b50935050505060405180910390f35b34801561015757600080fd5b506101d2600480360381019080803573ffffffffffffffffffffffffffffffffffffffff169060200190929190803590602001908201803590602001908080601f0160208091040260200160405190810160405280939291908181526020018383808284378201915050505050509192919290505050610333565b005b3480156101e057600080fd5b50610215600480360381019080803573ffffffffffffffffffffffffffffffffffffffff169060200190929190505050610407565b604051808273ffffffffffffffffffffffffffffffffffffffff1673ffffffffffffffffffffffffffffffffffffffff16815260200191505060405180910390f35b60006020528060005260406000206000915090508060000160009054906101000a900473ffffffffffffffffffffffffffffffffffffffff1690806001018054600181600116156101000203166002900480601f0160208091040260200160405190810160405280929190818152602001828054600181600116156101000203166002900480156103295780601f106102fe57610100808354040283529160200191610329565b820191906000526020600020905b81548152906001019060200180831161030c57829003601f168201915b5050505050905082565b60408051908101604052808373ffffffffffffffffffffffffffffffffffffffff168152602001828152506000803373ffffffffffffffffffffffffffffffffffffffff1673ffffffffffffffffffffffffffffffffffffffff16815260200190815260200160002060008201518160000160006101000a81548173ffffffffffffffffffffffffffffffffffffffff021916908373ffffffffffffffffffffffffffffffffffffffff16021790555060208201518160010190805190602001906103ff92919061040e565b509050505050565b6000919050565b828054600181600116156101000203166002900490600052602060002090601f016020900481019282601f1061044f57805160ff191683800117855561047d565b8280016001018555821561047d579182015b8281111561047c578251825591602001919060010190610461565b5b50905061048a919061048e565b5090565b6104b091905b808211156104ac576000816000905550600101610494565b5090565b905600a165627a7a72305820d9be2a95b55c153bc376452826c5a3af5e2ee40ebb21510ffd6dc71a362d5e9d0029",
  "source": "pragma solidity >=0.4.21;\n\ncontract PluginRegistrar {\n\n  struct Plugin {\n    address contractAddress;\n    string scriptUrl;\n  }\n  mapping (address => Plugin) public pluginsByDevAddress;\n\n\n  function pluginAddress(address devAddress) public constant returns(address){\n    //    return pluginsByDevAddress[devAddress].contractAddress;\n  }\n  \n  constructor() public {\n    //TEST\n    //    pluginsByDevAddress[0x6cCB1DEf4Ff8C4b953B084a220ec51817B65fD87] = Plugin(0x6cCB1DEf4Ff8C4b953B084a220ec51817B65fD87, \"testURL\");\n  }\n\n  function register(address contractAddress, string scriptUrl) public {\n    pluginsByDevAddress[msg.sender] = Plugin(contractAddress, scriptUrl);\n  }\n\n}\n",
  "sourcePath": "/home/whysos3rious/eth-plugin-registrar/eth/contracts/PluginRegistrar.sol",
  "compiler": {
    "name": "solc",
    "version": "0.4.25+commit.59dbf8f1.Emscripten.clang"
  },
  "schemaVersion": "2.0.2",
  "updatedAt": "2019-01-10T14:06:16.087Z"
}